{
  "contractName": "LastWill",
  "abi": [
    {
      "constant": true,
      "inputs": [],
      "name": "owner",
      "outputs": [
        {
          "name": "",
          "type": "address"
        }
      ],
      "payable": false,
      "stateMutability": "view",
      "type": "function"
    },
    {
      "inputs": [
        {
          "name": "_email",
          "type": "string"
        },
        {
          "name": "_deadline",
          "type": "uint256"
        },
        {
          "name": "_benAccs",
          "type": "address[]"
        },
        {
          "name": "_ratio",
          "type": "uint256[]"
        },
        {
          "name": "_witnessAccs",
          "type": "address[]"
        }
      ],
      "payable": false,
      "stateMutability": "nonpayable",
      "type": "constructor"
    },
    {
      "payable": true,
      "stateMutability": "payable",
      "type": "fallback"
    },
    {
      "anonymous": false,
      "inputs": [
        {
          "indexed": false,
          "name": "from",
          "type": "address"
        },
        {
          "indexed": false,
          "name": "amount",
          "type": "uint256"
        }
      ],
      "name": "Received",
      "type": "event"
    },
    {
      "anonymous": false,
      "inputs": [
        {
          "indexed": false,
          "name": "to",
          "type": "address"
        },
        {
          "indexed": false,
          "name": "amount",
          "type": "uint256"
        }
      ],
      "name": "Withdrew",
      "type": "event"
    },
    {
      "constant": false,
      "inputs": [],
      "name": "verifyWill",
      "outputs": [],
      "payable": false,
      "stateMutability": "nonpayable",
      "type": "function"
    },
    {
      "constant": false,
      "inputs": [],
      "name": "confirmDeath",
      "outputs": [],
      "payable": false,
      "stateMutability": "nonpayable",
      "type": "function"
    },
    {
      "constant": false,
      "inputs": [],
      "name": "inherit",
      "outputs": [],
      "payable": false,
      "stateMutability": "nonpayable",
      "type": "function"
    },
    {
      "constant": false,
      "inputs": [],
      "name": "withdraw",
      "outputs": [],
      "payable": false,
      "stateMutability": "nonpayable",
      "type": "function"
    },
    {
      "constant": true,
      "inputs": [],
      "name": "getEmail",
      "outputs": [
        {
          "name": "",
          "type": "string"
        }
      ],
      "payable": false,
      "stateMutability": "view",
      "type": "function"
    },
    {
      "constant": true,
      "inputs": [],
      "name": "getVerified",
      "outputs": [
        {
          "name": "",
          "type": "bool"
        }
      ],
      "payable": false,
      "stateMutability": "view",
      "type": "function"
    },
    {
      "constant": true,
      "inputs": [],
      "name": "getValid",
      "outputs": [
        {
          "name": "",
          "type": "bool"
        }
      ],
      "payable": false,
      "stateMutability": "view",
      "type": "function"
    },
    {
      "constant": true,
      "inputs": [],
      "name": "getDeadline",
      "outputs": [
        {
          "name": "",
          "type": "uint256"
        }
      ],
      "payable": false,
      "stateMutability": "view",
      "type": "function"
    },
    {
      "constant": true,
      "inputs": [],
      "name": "getBenAccs",
      "outputs": [
        {
          "name": "",
          "type": "address[]"
        }
      ],
      "payable": false,
      "stateMutability": "view",
      "type": "function"
    },
    {
      "constant": true,
      "inputs": [],
      "name": "getWitnesses",
      "outputs": [
        {
          "name": "",
          "type": "address[]"
        }
      ],
      "payable": false,
      "stateMutability": "view",
      "type": "function"
    }
  ],
  "bytecode": "0x60806040523480156200001157600080fd5b50604051620011e8380380620011e8833981018060405260a08110156200003757600080fd5b8101908080516401000000008111156200005057600080fd5b828101905060208101848111156200006757600080fd5b81518560018202830111640100000000821117156200008557600080fd5b5050929190602001805190602001909291908051640100000000811115620000ac57600080fd5b82810190506020810184811115620000c357600080fd5b8151856020820283011164010000000082111715620000e157600080fd5b50509291906020018051640100000000811115620000fe57600080fd5b828101905060208101848111156200011557600080fd5b81518560208202830111640100000000821117156200013357600080fd5b505092919060200180516401000000008111156200015057600080fd5b828101905060208101848111156200016757600080fd5b81518560208202830111640100000000821117156200018557600080fd5b5050929190505050336000806101000a81548173ffffffffffffffffffffffffffffffffffffffff021916908373ffffffffffffffffffffffffffffffffffffffff1602179055508460019080519060200190620001e592919062000645565b506001600260016101000a81548160ff0219169083151502179055506000600260006101000a81548160ff021916908315150217905550603c8402420160038190555060008090505b8351811015620004075760058482815181106200024757fe5b602002602001015190806001815401808255809150509060018203906000526020600020016000909192909190916101000a81548173ffffffffffffffffffffffffffffffffffffffff021916908373ffffffffffffffffffffffffffffffffffffffff160217905550506040518060600160405280858381518110620002ca57fe5b602002602001015173ffffffffffffffffffffffffffffffffffffffff168152602001848381518110620002fa57fe5b602002602001015181526020016001151581525060046000600584815481106200032057fe5b9060005260206000200160009054906101000a900473ffffffffffffffffffffffffffffffffffffffff1673ffffffffffffffffffffffffffffffffffffffff1673ffffffffffffffffffffffffffffffffffffffff16815260200190815260200160002060008201518160000160006101000a81548173ffffffffffffffffffffffffffffffffffffffff021916908373ffffffffffffffffffffffffffffffffffffffff1602179055506020820151816001015560408201518160020160006101000a81548160ff02191690831515021790555090505080806001019150506200022e565b5060008090505b8151811015620006395760078282815181106200042757fe5b602002602001015190806001815401808255809150509060018203906000526020600020016000909192909190916101000a81548173ffffffffffffffffffffffffffffffffffffffff021916908373ffffffffffffffffffffffffffffffffffffffff16021790555050604051806080016040528060078381548110620004ab57fe5b9060005260206000200160009054906101000a900473ffffffffffffffffffffffffffffffffffffffff1673ffffffffffffffffffffffffffffffffffffffff1681526020016000151581526020016000151581526020016001151581525060066000600784815481106200051c57fe5b9060005260206000200160009054906101000a900473ffffffffffffffffffffffffffffffffffffffff1673ffffffffffffffffffffffffffffffffffffffff1673ffffffffffffffffffffffffffffffffffffffff16815260200190815260200160002060008201518160000160006101000a81548173ffffffffffffffffffffffffffffffffffffffff021916908373ffffffffffffffffffffffffffffffffffffffff16021790555060208201518160000160146101000a81548160ff02191690831515021790555060408201518160000160156101000a81548160ff02191690831515021790555060608201518160000160166101000a81548160ff02191690831515021790555090505080806001019150506200040e565b505050505050620006f4565b828054600181600116156101000203166002900490600052602060002090601f016020900481019282601f106200068857805160ff1916838001178555620006b9565b82800160010185558215620006b9579182015b82811115620006b85782518255916020019190600101906200069b565b5b509050620006c89190620006cc565b5090565b620006f191905b80821115620006ed576000816000905550600101620006d3565b5090565b90565b610ae480620007046000396000f3fe60806040526004361061009c5760003560e01c80637e79e8ba116100645780637e79e8ba146101a85780638da5cb5b1461023857806396d195bd1461028f578063ad4e0407146102fb578063af8979fd1461032a578063de315677146103415761009c565b80630eeb4de5146101095780632b445d78146101205780633ccfd60b14610137578063406e67091461014e5780635f8d96de1461017d575b7f88a5966d370b9919b20f3e2c13ff65706f196a4e32cc2c12bf57088f885258743334604051808373ffffffffffffffffffffffffffffffffffffffff1673ffffffffffffffffffffffffffffffffffffffff1681526020018281526020019250505060405180910390a1005b34801561011557600080fd5b5061011e6103ad565b005b34801561012c57600080fd5b5061013561046a565b005b34801561014357600080fd5b5061014c610785565b005b34801561015a57600080fd5b506101636107e0565b604051808215151515815260200191505060405180910390f35b34801561018957600080fd5b506101926107f7565b6040518082815260200191505060405180910390f35b3480156101b457600080fd5b506101bd610801565b6040518080602001828103825283818151815260200191508051906020019080838360005b838110156101fd5780820151818401526020810190506101e2565b50505050905090810190601f16801561022a5780820380516001836020036101000a031916815260200191505b509250505060405180910390f35b34801561024457600080fd5b5061024d6108a3565b604051808273ffffffffffffffffffffffffffffffffffffffff1673ffffffffffffffffffffffffffffffffffffffff16815260200191505060405180910390f35b34801561029b57600080fd5b506102a46108c8565b6040518080602001828103825283818151815260200191508051906020019060200280838360005b838110156102e75780820151818401526020810190506102cc565b505050509050019250505060405180910390f35b34801561030757600080fd5b50610310610956565b604051808215151515815260200191505060405180910390f35b34801561033657600080fd5b5061033f61096d565b005b34801561034d57600080fd5b50610356610a2a565b6040518080602001828103825283818151815260200191508051906020019060200280838360005b8381101561039957808201518184015260208101905061037e565b505050509050019250505060405180910390f35b60011515600660003373ffffffffffffffffffffffffffffffffffffffff1673ffffffffffffffffffffffffffffffffffffffff16815260200190815260200160002060000160169054906101000a900460ff1615151461040d57600080fd5b6001600660003373ffffffffffffffffffffffffffffffffffffffff1673ffffffffffffffffffffffffffffffffffffffff16815260200190815260200160002060000160146101000a81548160ff021916908315150217905550565b60011515600460003373ffffffffffffffffffffffffffffffffffffffff1673ffffffffffffffffffffffffffffffffffffffff16815260200190815260200160002060020160009054906101000a900460ff161515146104ca57600080fd5b600260009054906101000a900460ff166104e357600080fd5b600080905060008090505b6007805490508110156105ad57600660006007838154811061050c57fe5b9060005260206000200160009054906101000a900473ffffffffffffffffffffffffffffffffffffffff1673ffffffffffffffffffffffffffffffffffffffff1673ffffffffffffffffffffffffffffffffffffffff16815260200190815260200160002060000160159054906101000a900460ff16156105945781806001019250506105a0565b600061059f57600080fd5b5b80806001019150506104ee565b5060078054905081146105bf57600080fd5b6000600460003373ffffffffffffffffffffffffffffffffffffffff1673ffffffffffffffffffffffffffffffffffffffff168152602001908152602001600020600101541161060e57600080fd5b600033905060008090506000600460008473ffffffffffffffffffffffffffffffffffffffff1673ffffffffffffffffffffffffffffffffffffffff1681526020019081526020016000206001015490506064813073ffffffffffffffffffffffffffffffffffffffff1631028161068257fe5b0491508273ffffffffffffffffffffffffffffffffffffffff166108fc839081150290604051600060405180830381858888f193505050501580156106cb573d6000803e3d6000fd5b507fb244b9a17ad633c6e83b7983ee04320484956a68ddbe96a0b70dfca1cf19d7233383604051808373ffffffffffffffffffffffffffffffffffffffff1673ffffffffffffffffffffffffffffffffffffffff1681526020018281526020019250505060405180910390a16000600460008573ffffffffffffffffffffffffffffffffffffffff1673ffffffffffffffffffffffffffffffffffffffff1681526020019081526020016000206001018190555050505050565b6000809054906101000a900473ffffffffffffffffffffffffffffffffffffffff1673ffffffffffffffffffffffffffffffffffffffff163373ffffffffffffffffffffffffffffffffffffffff16146107de57600080fd5b565b6000600260009054906101000a900460ff16905090565b6000600354905090565b606060018054600181600116156101000203166002900480601f0160208091040260200160405190810160405280929190818152602001828054600181600116156101000203166002900480156108995780601f1061086e57610100808354040283529160200191610899565b820191906000526020600020905b81548152906001019060200180831161087c57829003601f168201915b5050505050905090565b6000809054906101000a900473ffffffffffffffffffffffffffffffffffffffff1681565b6060600780548060200260200160405190810160405280929190818152602001828054801561094c57602002820191906000526020600020905b8160009054906101000a900473ffffffffffffffffffffffffffffffffffffffff1673ffffffffffffffffffffffffffffffffffffffff1681526020019060010190808311610902575b5050505050905090565b6000600260019054906101000a900460ff16905090565b60011515600660003373ffffffffffffffffffffffffffffffffffffffff1673ffffffffffffffffffffffffffffffffffffffff16815260200190815260200160002060000160169054906101000a900460ff161515146109cd57600080fd5b6001600660003373ffffffffffffffffffffffffffffffffffffffff1673ffffffffffffffffffffffffffffffffffffffff16815260200190815260200160002060000160156101000a81548160ff021916908315150217905550565b60606005805480602002602001604051908101604052809291908181526020018280548015610aae57602002820191906000526020600020905b8160009054906101000a900473ffffffffffffffffffffffffffffffffffffffff1673ffffffffffffffffffffffffffffffffffffffff1681526020019060010190808311610a64575b505050505090509056fea165627a7a72305820c6cabceea44e6702eb5ffb0cf9ab550457255734a0c719db5a7da5be703303250029",
  "source": "pragma solidity ^0.5.8;\r\n\r\ncontract LastWill {\r\n    // Owner of the Contract and his email\r\n    address payable public owner;\r\n    string private email;\r\n    // Bool if this contract has been verified yet.\r\n    bool private verified;\r\n    // Bool Is this Contract still valid?\r\n    bool private valid;\r\n    // time of validity?\r\n    uint256 private deadline;\r\n    // Struct of the beneficiaries\r\n    struct Beneficiary {\r\n        address payable addBen;\r\n        uint256 ratio;\r\n        bool isBenef;\r\n    }\r\n\r\n    // Mapping of bens\r\n    mapping (address => Beneficiary) private ben;\r\n    // Addresses of the beneficiaries as key to access struct\r\n    address[] private benAccs;\r\n\r\n    // Struct for the verifiers.\r\n    struct Verifier {\r\n        address payable addVer;\r\n        bool verifiedWill;\r\n        bool confirmedDeath;\r\n        bool isVerifier;\r\n    }\r\n    mapping (address => Verifier ) private witnesses;\r\n\r\n    address[] private witnessAccs;\r\n\r\n    // Constructor for new Last Will\r\n    constructor (\r\n        string memory _email,\r\n        uint256 _deadline,\r\n        address[] memory _benAccs,\r\n        uint256[] memory _ratio,\r\n        address[] memory _witnessAccs\r\n    ) public {\r\n        owner = msg.sender;\r\n        email = _email;\r\n        valid = true;\r\n        verified = false;\r\n        deadline = now + _deadline * 1 minutes;\r\n\r\n        for (uint i = 0; i < _benAccs.length; i++) {\r\n            benAccs.push(_benAccs[i]);\r\n            ben[benAccs[i]] = Beneficiary(address(uint160(_benAccs[i])), _ratio[i], true);\r\n        }\r\n\r\n        for (uint i = 0; i < _witnessAccs.length; i++) {\r\n            witnessAccs.push(_witnessAccs[i]);\r\n            witnesses[witnessAccs[i]] = Verifier(address(uint160(witnessAccs[i])), false, false, true);\r\n        }\r\n        // Change later when adding more Witnesses.\r\n        // witness = Verifier(_verifier, false, false);\r\n    }\r\n\r\n    //\r\n    //  MODIFIERS\r\n    //\r\n\r\n    // Modifier that requires sender to be the owner.\r\n    modifier onlyOwner() {\r\n        require(msg.sender == owner);\r\n        _;\r\n    }\r\n\r\n    // Modifier that requires the last will the be verified.\r\n    modifier afterVerification() {\r\n        require(verified);\r\n        _;\r\n    }\r\n\r\n    // Modifier that requires sender to be a beneficiary.\r\n    modifier onlyBeneficiary() {\r\n        require(ben[msg.sender].isBenef == true);\r\n        _;\r\n    }\r\n\r\n    // Modifier that requires sender to be a verifier.\r\n    modifier onlyVerifier() {\r\n        require(witnesses[msg.sender].isVerifier == true);\r\n        _;\r\n    }\r\n\r\n    //Check if all Witnesses confirmed the death of the person\r\n    modifier afterDeath() {\r\n        uint deathCounter = 0;\r\n        for(uint i = 0; i < witnessAccs.length; i++) {\r\n            if(witnesses[witnessAccs[i]].confirmedDeath) {\r\n                deathCounter++;\r\n            } else {\r\n                require(false);\r\n            }\r\n        }\r\n        require(deathCounter == witnessAccs.length);\r\n        _;\r\n    }\r\n    //Check if the ratio is over 0, so function only can be called if ratio is valid\r\n    modifier ratioValid() {\r\n        require(ben[msg.sender].ratio > 0);\r\n        _;\r\n    }\r\n\r\n    //\r\n    // ACTUAL LOGIC\r\n    //\r\n\r\n    function() payable external{\r\n        emit Received(msg.sender, msg.value);\r\n    }\r\n\r\n    // Verify Will by one Verifier / Witness\r\n    function verifyWill() onlyVerifier public {\r\n        witnesses[msg.sender].verifiedWill = true;\r\n    }\r\n    // Verify Death by one Verifier / witness\r\n    function confirmDeath() onlyVerifier public {\r\n        witnesses[msg.sender].confirmedDeath = true;\r\n    }\r\n\r\n    // Inherit function\r\n    function inherit() onlyBeneficiary afterVerification afterDeath ratioValid public {\r\n\r\n        address payable benef = msg.sender;\r\n        uint256 inheritance = 0;\r\n        uint256 share = ben[address(benef)].ratio;\r\n\r\n        // Calculate the inheritance amount for beneficiary | divide by 100 again\r\n        inheritance = (address(this).balance * share) / 100;\r\n\r\n        // Send the inheritance amount to the beneficiary\r\n        benef.transfer(inheritance);\r\n        emit Withdrew(msg.sender, inheritance);\r\n\r\n        // Set share to 0 to avoid double inheritance.\r\n        ben[address(benef)].ratio = 0;\r\n\r\n    }\r\n\r\n    function withdraw() onlyOwner public {\r\n\r\n\r\n    }\r\n\r\n    //\r\n    //  GETTER FUNCTIONS\r\n    //\r\n    function getEmail() view public returns(string memory) {\r\n        return email;\r\n    }\r\n\r\n\r\n    function getVerified() view public returns(bool) {\r\n        return verified;\r\n    }\r\n\r\n    function getValid() view public returns(bool) {\r\n        return valid;\r\n    }\r\n\r\n    function getDeadline() view public returns(uint256) {\r\n        return deadline;\r\n    }\r\n\r\n    function getBenAccs() view public returns(address[] memory) {\r\n        return benAccs;\r\n    }\r\n\r\n    function getWitnesses() view public returns(address[] memory) {\r\n        return witnessAccs;\r\n    }\r\n    //\r\n    // EVENTS\r\n    //\r\n    event Received(address from, uint256 amount);\r\n    event Withdrew(address to, uint256 amount);\r\n}\r\n\r\n\r\n\r\n",
  "sourcePath": "C:\\Users\\Lenn\\Documents\\Code\\CryptoWill\\contracts\\LastWill.sol",
  "compiler": {
    "name": "solc",
    "version": "0.5.8+commit.23d335f2.Emscripten.clang"
  },
  "schemaVersion": "3.0.16",
  "updatedAt": "2019-12-12T01:41:06.848Z",
  "devdoc": {
    "methods": {}
  },
  "userdoc": {
    "methods": {}
  }
}