{
  "contractName": "LastWill",
  "abi": [
    {
      "constant": true,
      "inputs": [],
      "name": "owner",
      "outputs": [
        {
          "name": "",
          "type": "address"
        }
      ],
      "payable": false,
      "stateMutability": "view",
      "type": "function"
    },
    {
      "inputs": [
        {
          "name": "_email",
          "type": "string"
        },
        {
          "name": "_information",
          "type": "string"
        },
        {
          "name": "_deadline",
          "type": "uint256"
        },
        {
          "name": "_benAccs",
          "type": "address[]"
        },
        {
          "name": "_ratio",
          "type": "uint256[]"
        }
      ],
      "payable": false,
      "stateMutability": "nonpayable",
      "type": "constructor"
    },
    {
      "constant": true,
      "inputs": [],
      "name": "getEmail",
      "outputs": [
        {
          "name": "",
          "type": "string"
        }
      ],
      "payable": false,
      "stateMutability": "view",
      "type": "function"
    },
    {
      "constant": true,
      "inputs": [],
      "name": "getNumbOfVer",
      "outputs": [
        {
          "name": "",
          "type": "uint256"
        }
      ],
      "payable": false,
      "stateMutability": "view",
      "type": "function"
    },
    {
      "constant": true,
      "inputs": [],
      "name": "getValid",
      "outputs": [
        {
          "name": "",
          "type": "bool"
        }
      ],
      "payable": false,
      "stateMutability": "view",
      "type": "function"
    },
    {
      "constant": true,
      "inputs": [],
      "name": "getInformation",
      "outputs": [
        {
          "name": "",
          "type": "string"
        }
      ],
      "payable": false,
      "stateMutability": "view",
      "type": "function"
    },
    {
      "constant": true,
      "inputs": [],
      "name": "getDeadline",
      "outputs": [
        {
          "name": "",
          "type": "uint256"
        }
      ],
      "payable": false,
      "stateMutability": "view",
      "type": "function"
    },
    {
      "constant": true,
      "inputs": [],
      "name": "getBenAccs",
      "outputs": [
        {
          "name": "",
          "type": "address[]"
        }
      ],
      "payable": false,
      "stateMutability": "view",
      "type": "function"
    }
  ],
  "bytecode": "0x608060405234801561001057600080fd5b50604051610af8380380610af8833981018060405260a081101561003357600080fd5b81019080805164010000000081111561004b57600080fd5b8281019050602081018481111561006157600080fd5b815185600182028301116401000000008211171561007e57600080fd5b5050929190602001805164010000000081111561009a57600080fd5b828101905060208101848111156100b057600080fd5b81518560018202830111640100000000821117156100cd57600080fd5b50509291906020018051906020019092919080516401000000008111156100f357600080fd5b8281019050602081018481111561010957600080fd5b815185602082028301116401000000008211171561012657600080fd5b5050929190602001805164010000000081111561014257600080fd5b8281019050602081018481111561015857600080fd5b815185602082028301116401000000008211171561017557600080fd5b5050929190505050336000806101000a81548173ffffffffffffffffffffffffffffffffffffffff021916908373ffffffffffffffffffffffffffffffffffffffff16021790555084600190805190602001906101d39291906104e7565b5060006002819055506001600360006101000a81548160ff02191690831515021790555060048054600181600116156101000203166002900480601f01602080910402602001604051908101604052809291908181526020018280546001816001161561010002031660029004801561028d5780601f106102625761010080835404028352916020019161028d565b820191906000526020600020905b81548152906001019060200180831161027057829003601f168201915b50505050509350603c830242019250600780548060200260200160405190810160405280929190818152602001828054801561031e57602002820191906000526020600020905b8160009054906101000a900473ffffffffffffffffffffffffffffffffffffffff1673ffffffffffffffffffffffffffffffffffffffff16815260200190600101908083116102d4575b5050505050915060008090505b6007805490508110156104dc5760405180606001604052806007838154811061035057fe5b9060005260206000200160009054906101000a900473ffffffffffffffffffffffffffffffffffffffff1673ffffffffffffffffffffffffffffffffffffffff1681526020018383815181106103a257fe5b602002602001015181526020016040518060400160405280600b81526020017f4e6f7468696e672059657400000000000000000000000000000000000000000081525081525060066000600784815481106103f957fe5b9060005260206000200160009054906101000a900473ffffffffffffffffffffffffffffffffffffffff1673ffffffffffffffffffffffffffffffffffffffff1673ffffffffffffffffffffffffffffffffffffffff16815260200190815260200160002060008201518160000160006101000a81548173ffffffffffffffffffffffffffffffffffffffff021916908373ffffffffffffffffffffffffffffffffffffffff1602179055506020820151816001015560408201518160020190805190602001906104cb929190610567565b50905050808060010191505061032b565b50505050505061060c565b828054600181600116156101000203166002900490600052602060002090601f016020900481019282601f1061052857805160ff1916838001178555610556565b82800160010185558215610556579182015b8281111561055557825182559160200191906001019061053a565b5b50905061056391906105e7565b5090565b828054600181600116156101000203166002900490600052602060002090601f016020900481019282601f106105a857805160ff19168380011785556105d6565b828001600101855582156105d6579182015b828111156105d55782518255916020019190600101906105ba565b5b5090506105e391906105e7565b5090565b61060991905b808211156106055760008160009055506001016105ed565b5090565b90565b6104dd8061061b6000396000f3fe608060405234801561001057600080fd5b506004361061007d5760003560e01c80638da5cb5b1161005b5780638da5cb5b14610141578063ad4e04071461018b578063c0da1e68146101ad578063de315677146102305761007d565b8063313d2347146100825780635f8d96de146100a05780637e79e8ba146100be575b600080fd5b61008a61028f565b6040518082815260200191505060405180910390f35b6100a8610299565b6040518082815260200191505060405180910390f35b6100c66102a3565b6040518080602001828103825283818151815260200191508051906020019080838360005b838110156101065780820151818401526020810190506100eb565b50505050905090810190601f1680156101335780820380516001836020036101000a031916815260200191505b509250505060405180910390f35b610149610345565b604051808273ffffffffffffffffffffffffffffffffffffffff1673ffffffffffffffffffffffffffffffffffffffff16815260200191505060405180910390f35b61019361036a565b604051808215151515815260200191505060405180910390f35b6101b5610381565b6040518080602001828103825283818151815260200191508051906020019080838360005b838110156101f55780820151818401526020810190506101da565b50505050905090810190601f1680156102225780820380516001836020036101000a031916815260200191505b509250505060405180910390f35b610238610423565b6040518080602001828103825283818151815260200191508051906020019060200280838360005b8381101561027b578082015181840152602081019050610260565b505050509050019250505060405180910390f35b6000600254905090565b6000600554905090565b606060018054600181600116156101000203166002900480601f01602080910402602001604051908101604052809291908181526020018280546001816001161561010002031660029004801561033b5780601f106103105761010080835404028352916020019161033b565b820191906000526020600020905b81548152906001019060200180831161031e57829003601f168201915b5050505050905090565b6000809054906101000a900473ffffffffffffffffffffffffffffffffffffffff1681565b6000600360009054906101000a900460ff16905090565b606060048054600181600116156101000203166002900480601f0160208091040260200160405190810160405280929190818152602001828054600181600116156101000203166002900480156104195780601f106103ee57610100808354040283529160200191610419565b820191906000526020600020905b8154815290600101906020018083116103fc57829003601f168201915b5050505050905090565b606060078054806020026020016040519081016040528092919081815260200182805480156104a757602002820191906000526020600020905b8160009054906101000a900473ffffffffffffffffffffffffffffffffffffffff1673ffffffffffffffffffffffffffffffffffffffff168152602001906001019080831161045d575b505050505090509056fea165627a7a72305820e0ff42a300cea87e03f2bbb265404099a2b7d0bebe091cdf4c0bd235f69885180029",
  "source": "pragma solidity ^0.5.8;\r\n\r\ncontract LastWill {\r\n    // Owner of the Contract and his email\r\n    address payable public owner;\r\n    string private email;\r\n    // NUmber of Verifications that this Contract received\r\n    uint256 private numbOfVer;\r\n    // Bool Is this Contract still valid?\r\n    bool private valid;\r\n    // Array of contacts of the owner\r\n    string private information;\r\n    //time of validity?\r\n    uint256 private deadline;\r\n    // Struct of the beneficiaries\r\n    struct Beneficiary{\r\n        address addBen;\r\n        uint256 ratio;\r\n        string contact;\r\n    }\r\n\r\n    //mapping of bens\r\n    mapping (address => Beneficiary) private ben;\r\n    // addresses of the beneficiaries as key to access struct\r\n    address[] private benAccs;\r\n\r\n\r\n    // function LastWill(){\r\n    //\r\n    // }\r\n\r\n    //Constructor for new Last Will\r\n    constructor(\r\n        string memory _email,\r\n        string memory _information,\r\n        uint256 _deadline,\r\n        address[] memory _benAccs,\r\n        //string[] memory _contact,\r\n        uint256[] memory _ratio\r\n    ) public {\r\n        owner = msg.sender;\r\n        email = _email;\r\n        numbOfVer = 0;\r\n        valid = true;\r\n        _information = information;\r\n        _deadline = now + _deadline * 1 minutes;\r\n        _benAccs = benAccs;\r\n        for(uint i = 0; i < benAccs.length; i++) {\r\n            ben[benAccs[i]] = Beneficiary(benAccs[i], _ratio[i], \"Nothing Yet\");\r\n        }\r\n    }\r\n\r\n    modifier onlyOwner() {\r\n        require(msg.sender == owner);\r\n        _;\r\n    }\r\n\r\n    //\r\n    //  GETTER FUNCTIONS\r\n    //\r\n    function getEmail() view public returns(string memory) {\r\n        return email;\r\n    }\r\n\r\n    function getNumbOfVer() view public returns(uint256) {\r\n        return numbOfVer;\r\n    }\r\n\r\n    function getValid() view public returns(bool) {\r\n        return valid;\r\n    }\r\n\r\n    function getInformation() view public returns(string memory) {\r\n        return information;\r\n    }\r\n\r\n    function getDeadline() view public returns(uint256) {\r\n        return deadline;\r\n    }\r\n\r\n    function getBenAccs() view public returns(address[] memory) {\r\n        return benAccs;\r\n    }\r\n}\r\n\r\n\r\n",
  "sourcePath": "C:/Users/Philip/WebstormProjects/CryptoWill/contracts/LastWill.sol",
  "compiler": {
    "name": "solc",
    "version": "0.5.8+commit.23d335f2.Emscripten.clang"
  },
  "schemaVersion": "3.0.17",
  "updatedAt": "2019-12-10T06:44:46.424Z",
  "devdoc": {
    "methods": {}
  },
  "userdoc": {
    "methods": {}
  }
}