{
  "contractName": "LastWill",
  "abi": [
    {
      "constant": true,
      "inputs": [],
      "name": "owner",
      "outputs": [
        {
          "name": "",
          "type": "address"
        }
      ],
      "payable": false,
      "stateMutability": "view",
      "type": "function"
    },
    {
      "inputs": [
        {
          "name": "_owner",
          "type": "address"
        },
        {
          "name": "_email",
          "type": "string"
        },
        {
          "name": "_deadline",
          "type": "uint256"
        },
        {
          "name": "_benAccs",
          "type": "address[]"
        },
        {
          "name": "_ratio",
          "type": "uint256[]"
        },
        {
          "name": "_witnessAccs",
          "type": "address[]"
        }
      ],
      "payable": false,
      "stateMutability": "nonpayable",
      "type": "constructor"
    },
    {
      "payable": true,
      "stateMutability": "payable",
      "type": "fallback"
    },
    {
      "anonymous": false,
      "inputs": [
        {
          "indexed": false,
          "name": "from",
          "type": "address"
        },
        {
          "indexed": false,
          "name": "amount",
          "type": "uint256"
        }
      ],
      "name": "Received",
      "type": "event"
    },
    {
      "anonymous": false,
      "inputs": [
        {
          "indexed": false,
          "name": "to",
          "type": "address"
        },
        {
          "indexed": false,
          "name": "amount",
          "type": "uint256"
        }
      ],
      "name": "Withdrew",
      "type": "event"
    },
    {
      "constant": false,
      "inputs": [],
      "name": "verifyWill",
      "outputs": [],
      "payable": true,
      "stateMutability": "payable",
      "type": "function"
    },
    {
      "constant": false,
      "inputs": [],
      "name": "confirmDeath",
      "outputs": [],
      "payable": true,
      "stateMutability": "payable",
      "type": "function"
    },
    {
      "constant": false,
      "inputs": [],
      "name": "inherit",
      "outputs": [],
      "payable": false,
      "stateMutability": "nonpayable",
      "type": "function"
    },
    {
      "constant": false,
      "inputs": [
        {
          "name": "amount",
          "type": "uint256"
        }
      ],
      "name": "withdraw",
      "outputs": [],
      "payable": true,
      "stateMutability": "payable",
      "type": "function"
    },
    {
      "constant": true,
      "inputs": [],
      "name": "getEmail",
      "outputs": [
        {
          "name": "",
          "type": "string"
        }
      ],
      "payable": false,
      "stateMutability": "view",
      "type": "function"
    },
    {
      "constant": true,
      "inputs": [],
      "name": "getDeathConfirmed",
      "outputs": [
        {
          "name": "",
          "type": "bool"
        }
      ],
      "payable": false,
      "stateMutability": "view",
      "type": "function"
    },
    {
      "constant": true,
      "inputs": [],
      "name": "getVerified",
      "outputs": [
        {
          "name": "",
          "type": "bool"
        }
      ],
      "payable": false,
      "stateMutability": "view",
      "type": "function"
    },
    {
      "constant": true,
      "inputs": [],
      "name": "getValid",
      "outputs": [
        {
          "name": "",
          "type": "bool"
        }
      ],
      "payable": false,
      "stateMutability": "view",
      "type": "function"
    },
    {
      "constant": true,
      "inputs": [],
      "name": "getDeadline",
      "outputs": [
        {
          "name": "",
          "type": "uint256"
        }
      ],
      "payable": false,
      "stateMutability": "view",
      "type": "function"
    },
    {
      "constant": true,
      "inputs": [],
      "name": "getBenAccs",
      "outputs": [
        {
          "name": "",
          "type": "address[]"
        }
      ],
      "payable": false,
      "stateMutability": "view",
      "type": "function"
    },
    {
      "constant": true,
      "inputs": [],
      "name": "getWitnesses",
      "outputs": [
        {
          "name": "",
          "type": "address[]"
        }
      ],
      "payable": false,
      "stateMutability": "view",
      "type": "function"
    }
  ],
  "bytecode": "0x60806040523480156200001157600080fd5b50604051620013a2380380620013a2833981018060405260c08110156200003757600080fd5b810190808051906020019092919080516401000000008111156200005a57600080fd5b828101905060208101848111156200007157600080fd5b81518560018202830111640100000000821117156200008f57600080fd5b5050929190602001805190602001909291908051640100000000811115620000b657600080fd5b82810190506020810184811115620000cd57600080fd5b8151856020820283011164010000000082111715620000eb57600080fd5b505092919060200180516401000000008111156200010857600080fd5b828101905060208101848111156200011f57600080fd5b81518560208202830111640100000000821117156200013d57600080fd5b505092919060200180516401000000008111156200015a57600080fd5b828101905060208101848111156200017157600080fd5b81518560208202830111640100000000821117156200018f57600080fd5b5050929190505050856000806101000a81548173ffffffffffffffffffffffffffffffffffffffff021916908373ffffffffffffffffffffffffffffffffffffffff1602179055508460019080519060200190620001ef92919062000650565b506001600260016101000a81548160ff0219169083151502179055506000600260006101000a81548160ff021916908315150217905550603c8402420160038190555060008090505b8351811015620004115760058482815181106200025157fe5b602002602001015190806001815401808255809150509060018203906000526020600020016000909192909190916101000a81548173ffffffffffffffffffffffffffffffffffffffff021916908373ffffffffffffffffffffffffffffffffffffffff160217905550506040518060600160405280858381518110620002d457fe5b602002602001015173ffffffffffffffffffffffffffffffffffffffff1681526020018483815181106200030457fe5b602002602001015181526020016001151581525060046000600584815481106200032a57fe5b9060005260206000200160009054906101000a900473ffffffffffffffffffffffffffffffffffffffff1673ffffffffffffffffffffffffffffffffffffffff1673ffffffffffffffffffffffffffffffffffffffff16815260200190815260200160002060008201518160000160006101000a81548173ffffffffffffffffffffffffffffffffffffffff021916908373ffffffffffffffffffffffffffffffffffffffff1602179055506020820151816001015560408201518160020160006101000a81548160ff021916908315150217905550905050808060010191505062000238565b5060008090505b8151811015620006435760078282815181106200043157fe5b602002602001015190806001815401808255809150509060018203906000526020600020016000909192909190916101000a81548173ffffffffffffffffffffffffffffffffffffffff021916908373ffffffffffffffffffffffffffffffffffffffff16021790555050604051806080016040528060078381548110620004b557fe5b9060005260206000200160009054906101000a900473ffffffffffffffffffffffffffffffffffffffff1673ffffffffffffffffffffffffffffffffffffffff1681526020016000151581526020016000151581526020016001151581525060066000600784815481106200052657fe5b9060005260206000200160009054906101000a900473ffffffffffffffffffffffffffffffffffffffff1673ffffffffffffffffffffffffffffffffffffffff1673ffffffffffffffffffffffffffffffffffffffff16815260200190815260200160002060008201518160000160006101000a81548173ffffffffffffffffffffffffffffffffffffffff021916908373ffffffffffffffffffffffffffffffffffffffff16021790555060208201518160000160146101000a81548160ff02191690831515021790555060408201518160000160156101000a81548160ff02191690831515021790555060608201518160000160166101000a81548160ff021916908315150217905550905050808060010191505062000418565b50505050505050620006ff565b828054600181600116156101000203166002900490600052602060002090601f016020900481019282601f106200069357805160ff1916838001178555620006c4565b82800160010185558215620006c4579182015b82811115620006c3578251825591602001919060010190620006a6565b5b509050620006d39190620006d7565b5090565b620006fc91905b80821115620006f8576000816000905550600101620006de565b5090565b90565b610c93806200070f6000396000f3fe6080604052600436106100a75760003560e01c80638da5cb5b116100645780638da5cb5b1461024d57806396d195bd146102a4578063ad4e040714610310578063ad727eb21461033f578063af8979fd1461036e578063de31567714610378576100a7565b80630eeb4de5146101145780632b445d781461011e5780632e1a7d4d14610135578063406e6709146101635780635f8d96de146101925780637e79e8ba146101bd575b7f88a5966d370b9919b20f3e2c13ff65706f196a4e32cc2c12bf57088f885258743334604051808373ffffffffffffffffffffffffffffffffffffffff1673ffffffffffffffffffffffffffffffffffffffff1681526020018281526020019250505060405180910390a1005b61011c6103e4565b005b34801561012a57600080fd5b50610133610536565b005b6101616004803603602081101561014b57600080fd5b810190808035906020019092919050505061078c565b005b34801561016f57600080fd5b50610178610885565b604051808215151515815260200191505060405180910390f35b34801561019e57600080fd5b506101a761089c565b6040518082815260200191505060405180910390f35b3480156101c957600080fd5b506101d26108a6565b6040518080602001828103825283818151815260200191508051906020019080838360005b838110156102125780820151818401526020810190506101f7565b50505050905090810190601f16801561023f5780820380516001836020036101000a031916815260200191505b509250505060405180910390f35b34801561025957600080fd5b50610262610948565b604051808273ffffffffffffffffffffffffffffffffffffffff1673ffffffffffffffffffffffffffffffffffffffff16815260200191505060405180910390f35b3480156102b057600080fd5b506102b961096d565b6040518080602001828103825283818151815260200191508051906020019060200280838360005b838110156102fc5780820151818401526020810190506102e1565b505050509050019250505060405180910390f35b34801561031c57600080fd5b506103256109fb565b604051808215151515815260200191505060405180910390f35b34801561034b57600080fd5b50610354610a12565b604051808215151515815260200191505060405180910390f35b610376610a28565b005b34801561038457600080fd5b5061038d610bd9565b6040518080602001828103825283818151815260200191508051906020019060200280838360005b838110156103d05780820151818401526020810190506103b5565b505050509050019250505060405180910390f35b6001600660003373ffffffffffffffffffffffffffffffffffffffff1673ffffffffffffffffffffffffffffffffffffffff16815260200190815260200160002060000160146101000a81548160ff021916908315150217905550600080905060008090505b60078054905081101561050957600660006007838154811061046857fe5b9060005260206000200160009054906101000a900473ffffffffffffffffffffffffffffffffffffffff1673ffffffffffffffffffffffffffffffffffffffff1673ffffffffffffffffffffffffffffffffffffffff16815260200190815260200160002060000160149054906101000a900460ff16156104f05781806001019250506104fc565b60006104fb57600080fd5b5b808060010191505061044a565b50600780549050811415610533576001600260006101000a81548160ff0219169083151502179055505b50565b60011515600460003373ffffffffffffffffffffffffffffffffffffffff1673ffffffffffffffffffffffffffffffffffffffff16815260200190815260200160002060020160009054906101000a900460ff1615151461059657600080fd5b600260009054906101000a900460ff166105af57600080fd5b6002809054906101000a900460ff166105c757600080fd5b6000600460003373ffffffffffffffffffffffffffffffffffffffff1673ffffffffffffffffffffffffffffffffffffffff168152602001908152602001600020600101541161061657600080fd5b600033905060008090506000600460008473ffffffffffffffffffffffffffffffffffffffff1673ffffffffffffffffffffffffffffffffffffffff1681526020019081526020016000206001015490506064813073ffffffffffffffffffffffffffffffffffffffff1631028161068a57fe5b0491508273ffffffffffffffffffffffffffffffffffffffff166108fc839081150290604051600060405180830381858888f193505050501580156106d3573d6000803e3d6000fd5b507fb244b9a17ad633c6e83b7983ee04320484956a68ddbe96a0b70dfca1cf19d7233383604051808373ffffffffffffffffffffffffffffffffffffffff1673ffffffffffffffffffffffffffffffffffffffff1681526020018281526020019250505060405180910390a16000600460008573ffffffffffffffffffffffffffffffffffffffff1673ffffffffffffffffffffffffffffffffffffffff16815260200190815260200160002060010181905550505050565b6000809054906101000a900473ffffffffffffffffffffffffffffffffffffffff1673ffffffffffffffffffffffffffffffffffffffff163373ffffffffffffffffffffffffffffffffffffffff16146107e557600080fd5b6000670de0b6b3a7640000820290503073ffffffffffffffffffffffffffffffffffffffff163181111561081857610881565b6000809054906101000a900473ffffffffffffffffffffffffffffffffffffffff1673ffffffffffffffffffffffffffffffffffffffff166108fc829081150290604051600060405180830381858888f1935050505015801561087f573d6000803e3d6000fd5b505b5050565b6000600260009054906101000a900460ff16905090565b6000600354905090565b606060018054600181600116156101000203166002900480601f01602080910402602001604051908101604052809291908181526020018280546001816001161561010002031660029004801561093e5780601f106109135761010080835404028352916020019161093e565b820191906000526020600020905b81548152906001019060200180831161092157829003601f168201915b5050505050905090565b6000809054906101000a900473ffffffffffffffffffffffffffffffffffffffff1681565b606060078054806020026020016040519081016040528092919081815260200182805480156109f157602002820191906000526020600020905b8160009054906101000a900473ffffffffffffffffffffffffffffffffffffffff1673ffffffffffffffffffffffffffffffffffffffff16815260200190600101908083116109a7575b5050505050905090565b6000600260019054906101000a900460ff16905090565b60006002809054906101000a900460ff16905090565b60011515600660003373ffffffffffffffffffffffffffffffffffffffff1673ffffffffffffffffffffffffffffffffffffffff16815260200190815260200160002060000160169054906101000a900460ff16151514610a8857600080fd5b6001600660003373ffffffffffffffffffffffffffffffffffffffff1673ffffffffffffffffffffffffffffffffffffffff16815260200190815260200160002060000160156101000a81548160ff021916908315150217905550600080905060008090505b600780549050811015610bad576006600060078381548110610b0c57fe5b9060005260206000200160009054906101000a900473ffffffffffffffffffffffffffffffffffffffff1673ffffffffffffffffffffffffffffffffffffffff1673ffffffffffffffffffffffffffffffffffffffff16815260200190815260200160002060000160159054906101000a900460ff1615610b94578180600101925050610ba0565b6000610b9f57600080fd5b5b8080600101915050610aee565b50600780549050811415610bd65760016002806101000a81548160ff0219169083151502179055505b50565b60606005805480602002602001604051908101604052809291908181526020018280548015610c5d57602002820191906000526020600020905b8160009054906101000a900473ffffffffffffffffffffffffffffffffffffffff1673ffffffffffffffffffffffffffffffffffffffff1681526020019060010190808311610c13575b505050505090509056fea165627a7a72305820aff58aff0927e2b6ac7736699980c76a2de06875c922a046e322e9e052812e370029",
  "source": "pragma solidity ^0.5.8;\r\n\r\ncontract LastWill {\r\n    // Owner of the Contract and his email\r\n    address payable public owner;\r\n    string private email;\r\n    // Bool if this contract has been verified yet.\r\n    bool private verified;\r\n    // Bool Is this Contract still valid?\r\n    bool private valid;\r\n    // Bool is the testator confirmed as dead?\r\n    bool private deathConfirmed;\r\n    // time of validity?\r\n    uint256 private deadline;\r\n    // Struct of the beneficiaries\r\n    struct Beneficiary {\r\n        address payable addBen;\r\n        uint256 ratio;\r\n        bool isBenef;\r\n    }\r\n\r\n    // Mapping of bens\r\n    mapping (address => Beneficiary) private ben;\r\n    // Addresses of the beneficiaries as key to access struct\r\n    address[] private benAccs;\r\n\r\n    // Struct for the verifiers.\r\n    struct Verifier {\r\n        address payable addVer;\r\n        bool verifiedWill;\r\n        bool confirmedDeath;\r\n        bool isVerifier;\r\n    }\r\n    mapping (address => Verifier ) private witnesses;\r\n\r\n    address[] private witnessAccs;\r\n\r\n    // Constructor for new Last Will\r\n    constructor (\r\n        address payable _owner,\r\n        string memory _email,\r\n        uint256 _deadline,\r\n        address[] memory _benAccs,\r\n        uint256[] memory _ratio,\r\n        address[] memory _witnessAccs\r\n    ) public {\r\n        owner = _owner;\r\n        email = _email;\r\n        valid = true;\r\n        verified = false;\r\n        deadline = now + _deadline * 1 minutes;\r\n\r\n        for (uint i = 0; i < _benAccs.length; i++) {\r\n            benAccs.push(_benAccs[i]);\r\n            ben[benAccs[i]] = Beneficiary(address(uint160(_benAccs[i])), _ratio[i], true);\r\n        }\r\n\r\n        for (uint i = 0; i < _witnessAccs.length; i++) {\r\n            witnessAccs.push(_witnessAccs[i]);\r\n            witnesses[witnessAccs[i]] = Verifier(address(uint160(witnessAccs[i])), false, false, true);\r\n        }\r\n    }\r\n\r\n    //\r\n    //  MODIFIERS\r\n    //\r\n\r\n    // Modifier that requires sender to be the owner.\r\n    modifier onlyOwner() {\r\n        require(msg.sender == owner);\r\n        _;\r\n    }\r\n\r\n    // Modifier that requires the last will the be verified.\r\n    modifier afterVerification() {\r\n        require(verified);\r\n        _;\r\n    }\r\n\r\n    // Modifier that requires sender to be a beneficiary.\r\n    modifier onlyBeneficiary() {\r\n        require(ben[msg.sender].isBenef == true);\r\n        _;\r\n    }\r\n\r\n    // Modifier that requires sender to be a verifier.\r\n    modifier onlyWitness() {\r\n        require(witnesses[msg.sender].isVerifier == true);\r\n        _;\r\n    }\r\n\r\n    // Check if all Witnesses confirmed the death of the person\r\n    modifier afterDeath() {\r\n        require(deathConfirmed);\r\n        _;\r\n    }\r\n\r\n    // Check if the ratio is over 0, so function only can be called if ratio is valid\r\n    modifier ratioValid() {\r\n        require(ben[msg.sender].ratio > 0);\r\n        _;\r\n    }\r\n\r\n    //\r\n    // ACTUAL LOGIC\r\n    //\r\n\r\n    function() payable external{\r\n        emit Received(msg.sender, msg.value);\r\n    }\r\n\r\n    // Verify Will by one Verifier / Witness\r\n    function verifyWill() public payable {\r\n        // Set verified variable in verifier struct.\r\n        witnesses[msg.sender].verifiedWill = true;\r\n\r\n        // Loop all verifiers of the contract and check if they have already verified.\r\n        uint verifCounter = 0;\r\n        for (uint i = 0; i < witnessAccs.length; i++) {\r\n            if (witnesses[witnessAccs[i]].verifiedWill) {\r\n                verifCounter++;\r\n            } else {\r\n                require(false);\r\n            }\r\n        }\r\n\r\n        // If all have verified, set the contract as verified.\r\n        if (verifCounter == witnessAccs.length) {\r\n            verified = true;\r\n        }\r\n    }\r\n\r\n    // Verify Death by one Verifier / witness\r\n    function confirmDeath() onlyWitness public payable {\r\n        // Set verified variable in verifier struct.\r\n        witnesses[msg.sender].confirmedDeath = true;\r\n\r\n        // Loop all verifiers of the contract and check if they have already verified.\r\n        uint deathCounter = 0;\r\n        for (uint i = 0; i < witnessAccs.length; i++) {\r\n            if (witnesses[witnessAccs[i]].confirmedDeath) {\r\n                deathCounter++;\r\n            } else {\r\n                require(false);\r\n            }\r\n        }\r\n\r\n        // If all have verified, set the contract as verified.\r\n        if (deathCounter == witnessAccs.length) {\r\n            deathConfirmed = true;\r\n        }\r\n    }\r\n\r\n    // Inherit function\r\n    function inherit() onlyBeneficiary afterVerification afterDeath ratioValid public {\r\n\r\n        address payable benef = msg.sender;\r\n        uint256 inheritance = 0;\r\n        uint256 share = ben[address(benef)].ratio;\r\n\r\n        // Calculate the inheritance amount for beneficiary | divide by 100 again\r\n        inheritance = (address(this).balance * share) / 100;\r\n\r\n        // Send the inheritance amount to the beneficiary\r\n        benef.transfer(inheritance);\r\n        emit Withdrew(msg.sender, inheritance);\r\n\r\n        // Set share to 0 to avoid double inheritance.\r\n        ben[address(benef)].ratio = 0;\r\n\r\n    }\r\n\r\n    // Used to withdraw money from the contract.\r\n    function withdraw(uint256 amount) onlyOwner public payable{\r\n        uint256 _amount = amount * 1 ether;\r\n        if (_amount > address(this).balance) {\r\n\r\n        }\r\n        else {\r\n            owner.transfer(_amount);\r\n        }\r\n    }\r\n\r\n    //\r\n    //  GETTER FUNCTIONS\r\n    //\r\n    function getEmail() view public returns(string memory) {\r\n        return email;\r\n    }\r\n\r\n    function getDeathConfirmed() view public returns(bool) {\r\n        return deathConfirmed;\r\n    }\r\n\r\n    function getVerified() view public returns(bool) {\r\n        return verified;\r\n    }\r\n\r\n    function getValid() view public returns(bool) {\r\n        return valid;\r\n    }\r\n\r\n    function getDeadline() view public returns(uint256) {\r\n        return deadline;\r\n    }\r\n\r\n    function getBenAccs() view public returns(address[] memory) {\r\n        return benAccs;\r\n    }\r\n\r\n    function getWitnesses() view public returns(address[] memory) {\r\n        return witnessAccs;\r\n    }\r\n    //\r\n    // EVENTS\r\n    //\r\n    event Received(address from, uint256 amount);\r\n    event Withdrew(address to, uint256 amount);\r\n}\r\n\r\n\r\n\r\n",
  "sourcePath": "C:\\Users\\Lenn\\Documents\\Code\\CryptoWill\\contracts\\LastWill.sol",
  "compiler": {
    "name": "solc",
    "version": "0.5.8+commit.23d335f2.Emscripten.clang"
  },
  "schemaVersion": "3.0.16",
  "updatedAt": "2019-12-14T13:30:37.501Z",
  "devdoc": {
    "methods": {}
  },
  "userdoc": {
    "methods": {}
  }
}