{
  "contractName": "LastWillFactory",
  "abi": [
    {
      "payable": false,
      "stateMutability": "nonpayable",
      "type": "fallback"
    },
    {
      "constant": true,
      "inputs": [],
      "name": "hasLastWill",
      "outputs": [
        {
          "name": "",
          "type": "bool"
        }
      ],
      "payable": false,
      "stateMutability": "view",
      "type": "function"
    },
    {
      "constant": true,
      "inputs": [],
      "name": "getWill",
      "outputs": [
        {
          "name": "",
          "type": "address"
        }
      ],
      "payable": false,
      "stateMutability": "view",
      "type": "function"
    },
    {
      "constant": true,
      "inputs": [],
      "name": "getVerWill",
      "outputs": [
        {
          "name": "",
          "type": "address"
        }
      ],
      "payable": false,
      "stateMutability": "view",
      "type": "function"
    },
    {
      "constant": true,
      "inputs": [],
      "name": "hasVerWill",
      "outputs": [
        {
          "name": "",
          "type": "bool"
        }
      ],
      "payable": false,
      "stateMutability": "view",
      "type": "function"
    },
    {
      "constant": true,
      "inputs": [
        {
          "name": "contractAddr",
          "type": "address"
        }
      ],
      "name": "getWillInfo",
      "outputs": [
        {
          "name": "",
          "type": "string"
        },
        {
          "name": "",
          "type": "bool"
        },
        {
          "name": "",
          "type": "address[]"
        },
        {
          "name": "",
          "type": "uint256[]"
        },
        {
          "name": "",
          "type": "address[]"
        }
      ],
      "payable": false,
      "stateMutability": "view",
      "type": "function"
    },
    {
      "constant": false,
      "inputs": [
        {
          "name": "_email",
          "type": "string"
        },
        {
          "name": "_deadline",
          "type": "uint256"
        },
        {
          "name": "_benAccs",
          "type": "address[]"
        },
        {
          "name": "_ratio",
          "type": "uint256[]"
        },
        {
          "name": "_verifier",
          "type": "address[]"
        }
      ],
      "name": "newLastWill",
      "outputs": [
        {
          "name": "will",
          "type": "address"
        }
      ],
      "payable": true,
      "stateMutability": "payable",
      "type": "function"
    }
  ],
  "bytecode": "0x608060405234801561001057600080fd5b506123a2806100206000396000f3fe6080604052600436106200005c5760003560e01c806316211d0d146200006f5780631a1ab950146200033f578063294c9bba1462000399578063861014a914620003f3578063ba5997491462000425578063cd68a53314620005df575b3480156200006957600080fd5b50600080fd5b620002fd600480360360a08110156200008757600080fd5b8101908080359060200190640100000000811115620000a557600080fd5b820183602082011115620000b857600080fd5b80359060200191846001830284011164010000000083111715620000db57600080fd5b91908080601f016020809104026020016040519081016040528093929190818152602001838380828437600081840152601f19601f82011690508083019250505050505050919291929080359060200190929190803590602001906401000000008111156200014957600080fd5b8201836020820111156200015c57600080fd5b803590602001918460208302840111640100000000831117156200017f57600080fd5b919080806020026020016040519081016040528093929190818152602001838360200280828437600081840152601f19601f82011690508083019250505050505050919291929080359060200190640100000000811115620001e057600080fd5b820183602082011115620001f357600080fd5b803590602001918460208302840111640100000000831117156200021657600080fd5b919080806020026020016040519081016040528093929190818152602001838360200280828437600081840152601f19601f820116905080830192505050505050509192919290803590602001906401000000008111156200027757600080fd5b8201836020820111156200028a57600080fd5b80359060200191846020830284011164010000000083111715620002ad57600080fd5b919080806020026020016040519081016040528093929190818152602001838360200280828437600081840152601f19601f82011690508083019250505050505050919291929050505062000611565b604051808273ffffffffffffffffffffffffffffffffffffffff1673ffffffffffffffffffffffffffffffffffffffff16815260200191505060405180910390f35b3480156200034c57600080fd5b506200035762000953565b604051808273ffffffffffffffffffffffffffffffffffffffff1673ffffffffffffffffffffffffffffffffffffffff16815260200191505060405180910390f35b348015620003a657600080fd5b50620003b1620009b9565b604051808273ffffffffffffffffffffffffffffffffffffffff1673ffffffffffffffffffffffffffffffffffffffff16815260200191505060405180910390f35b3480156200040057600080fd5b506200040b62000a20565b604051808215151515815260200191505060405180910390f35b3480156200043257600080fd5b5062000478600480360360208110156200044b57600080fd5b81019080803573ffffffffffffffffffffffffffffffffffffffff16906020019092919050505062000ac6565b60405180806020018615151515815260200180602001806020018060200185810385528a818151815260200191508051906020019080838360005b83811015620004d0578082015181840152602081019050620004b3565b50505050905090810190601f168015620004fe5780820380516001836020036101000a031916815260200191505b50858103845288818151815260200191508051906020019060200280838360005b838110156200053c5780820151818401526020810190506200051f565b50505050905001858103835287818151815260200191508051906020019060200280838360005b838110156200058057808201518184015260208101905062000563565b50505050905001858103825286818151815260200191508051906020019060200280838360005b83811015620005c4578082015181840152602081019050620005a7565b50505050905001995050505050505050505060405180910390f35b348015620005ec57600080fd5b50620005f762000efe565b604051808215151515815260200191505060405180910390f35b6000338686868686604051620006279062000fa5565b808773ffffffffffffffffffffffffffffffffffffffff1673ffffffffffffffffffffffffffffffffffffffff1681526020018060200186815260200180602001806020018060200185810385528a818151815260200191508051906020019080838360005b83811015620006aa5780820151818401526020810190506200068d565b50505050905090810190601f168015620006d85780820380516001836020036101000a031916815260200191505b50858103845288818151815260200191508051906020019060200280838360005b8381101562000716578082015181840152602081019050620006f9565b50505050905001858103835287818151815260200191508051906020019060200280838360005b838110156200075a5780820151818401526020810190506200073d565b50505050905001858103825286818151815260200191508051906020019060200280838360005b838110156200079e57808201518184015260208101905062000781565b505050509050019a5050505050505050505050604051809103906000f080158015620007ce573d6000803e3d6000fd5b50905060008090505b825181101562000881578160016000858481518110620007f357fe5b602002602001015173ffffffffffffffffffffffffffffffffffffffff1673ffffffffffffffffffffffffffffffffffffffff16815260200190815260200160002060006101000a81548173ffffffffffffffffffffffffffffffffffffffff021916908373ffffffffffffffffffffffffffffffffffffffff1602179055508080600101915050620007d7565b50806000803373ffffffffffffffffffffffffffffffffffffffff1673ffffffffffffffffffffffffffffffffffffffff16815260200190815260200160002060006101000a81548173ffffffffffffffffffffffffffffffffffffffff021916908373ffffffffffffffffffffffffffffffffffffffff1602179055508073ffffffffffffffffffffffffffffffffffffffff166108fc349081150290604051600060405180830381858888f1935050505015801562000946573d6000803e3d6000fd5b5080905095945050505050565b60008060003373ffffffffffffffffffffffffffffffffffffffff1673ffffffffffffffffffffffffffffffffffffffff16815260200190815260200160002060009054906101000a900473ffffffffffffffffffffffffffffffffffffffff16905090565b6000600160003373ffffffffffffffffffffffffffffffffffffffff1673ffffffffffffffffffffffffffffffffffffffff16815260200190815260200160002060009054906101000a900473ffffffffffffffffffffffffffffffffffffffff16905090565b60008073ffffffffffffffffffffffffffffffffffffffff166000803373ffffffffffffffffffffffffffffffffffffffff1673ffffffffffffffffffffffffffffffffffffffff16815260200190815260200160002060009054906101000a900473ffffffffffffffffffffffffffffffffffffffff1673ffffffffffffffffffffffffffffffffffffffff161462000abe576001905062000ac3565b600090505b90565b606060006060806060600086905060608173ffffffffffffffffffffffffffffffffffffffff16637e79e8ba6040518163ffffffff1660e01b815260040160006040518083038186803b15801562000b1d57600080fd5b505afa15801562000b32573d6000803e3d6000fd5b505050506040513d6000823e3d601f19601f82011682018060405250602081101562000b5d57600080fd5b81019080805164010000000081111562000b7657600080fd5b8281019050602081018481111562000b8d57600080fd5b815185600182028301116401000000008211171562000bab57600080fd5b5050929190505050905060008273ffffffffffffffffffffffffffffffffffffffff1663406e67096040518163ffffffff1660e01b815260040160206040518083038186803b15801562000bfe57600080fd5b505afa15801562000c13573d6000803e3d6000fd5b505050506040513d602081101562000c2a57600080fd5b8101908080519060200190929190505050905060608373ffffffffffffffffffffffffffffffffffffffff1663de3156776040518163ffffffff1660e01b815260040160006040518083038186803b15801562000c8657600080fd5b505afa15801562000c9b573d6000803e3d6000fd5b505050506040513d6000823e3d601f19601f82011682018060405250602081101562000cc657600080fd5b81019080805164010000000081111562000cdf57600080fd5b8281019050602081018481111562000cf657600080fd5b815185602082028301116401000000008211171562000d1457600080fd5b5050929190505050905060608473ffffffffffffffffffffffffffffffffffffffff1663d73fe0aa6040518163ffffffff1660e01b815260040160006040518083038186803b15801562000d6757600080fd5b505afa15801562000d7c573d6000803e3d6000fd5b505050506040513d6000823e3d601f19601f82011682018060405250602081101562000da757600080fd5b81019080805164010000000081111562000dc057600080fd5b8281019050602081018481111562000dd757600080fd5b815185602082028301116401000000008211171562000df557600080fd5b5050929190505050905060608573ffffffffffffffffffffffffffffffffffffffff166396d195bd6040518163ffffffff1660e01b815260040160006040518083038186803b15801562000e4857600080fd5b505afa15801562000e5d573d6000803e3d6000fd5b505050506040513d6000823e3d601f19601f82011682018060405250602081101562000e8857600080fd5b81019080805164010000000081111562000ea157600080fd5b8281019050602081018481111562000eb857600080fd5b815185602082028301116401000000008211171562000ed657600080fd5b5050929190505050905084848484849a509a509a509a509a5050505050505091939590929450565b60008073ffffffffffffffffffffffffffffffffffffffff16600160003373ffffffffffffffffffffffffffffffffffffffff1673ffffffffffffffffffffffffffffffffffffffff16815260200190815260200160002060009054906101000a900473ffffffffffffffffffffffffffffffffffffffff1673ffffffffffffffffffffffffffffffffffffffff161462000f9d576001905062000fa2565b600090505b90565b6113c38062000fb48339019056fe60806040523480156200001157600080fd5b50604051620013c3380380620013c3833981018060405260c08110156200003757600080fd5b810190808051906020019092919080516401000000008111156200005a57600080fd5b828101905060208101848111156200007157600080fd5b81518560018202830111640100000000821117156200008f57600080fd5b5050929190602001805190602001909291908051640100000000811115620000b657600080fd5b82810190506020810184811115620000cd57600080fd5b8151856020820283011164010000000082111715620000eb57600080fd5b505092919060200180516401000000008111156200010857600080fd5b828101905060208101848111156200011f57600080fd5b81518560208202830111640100000000821117156200013d57600080fd5b505092919060200180516401000000008111156200015a57600080fd5b828101905060208101848111156200017157600080fd5b81518560208202830111640100000000821117156200018f57600080fd5b5050929190505050856000806101000a81548173ffffffffffffffffffffffffffffffffffffffff021916908373ffffffffffffffffffffffffffffffffffffffff1602179055508460019080519060200190620001ef92919062000690565b506001600260016101000a81548160ff0219169083151502179055506000600260006101000a81548160ff021916908315150217905550603c8402420160038190555060008090505b8351811015620004515760058482815181106200025157fe5b602002602001015190806001815401808255809150509060018203906000526020600020016000909192909190916101000a81548173ffffffffffffffffffffffffffffffffffffffff021916908373ffffffffffffffffffffffffffffffffffffffff160217905550506006838281518110620002cb57fe5b6020026020010151908060018154018082558091505090600182039060005260206000200160009091929091909150555060405180606001604052808583815181106200031457fe5b602002602001015173ffffffffffffffffffffffffffffffffffffffff1681526020018483815181106200034457fe5b602002602001015181526020016001151581525060046000600584815481106200036a57fe5b9060005260206000200160009054906101000a900473ffffffffffffffffffffffffffffffffffffffff1673ffffffffffffffffffffffffffffffffffffffff1673ffffffffffffffffffffffffffffffffffffffff16815260200190815260200160002060008201518160000160006101000a81548173ffffffffffffffffffffffffffffffffffffffff021916908373ffffffffffffffffffffffffffffffffffffffff1602179055506020820151816001015560408201518160020160006101000a81548160ff021916908315150217905550905050808060010191505062000238565b5060008090505b8151811015620006835760088282815181106200047157fe5b602002602001015190806001815401808255809150509060018203906000526020600020016000909192909190916101000a81548173ffffffffffffffffffffffffffffffffffffffff021916908373ffffffffffffffffffffffffffffffffffffffff16021790555050604051806080016040528060088381548110620004f557fe5b9060005260206000200160009054906101000a900473ffffffffffffffffffffffffffffffffffffffff1673ffffffffffffffffffffffffffffffffffffffff1681526020016000151581526020016000151581526020016001151581525060076000600884815481106200056657fe5b9060005260206000200160009054906101000a900473ffffffffffffffffffffffffffffffffffffffff1673ffffffffffffffffffffffffffffffffffffffff1673ffffffffffffffffffffffffffffffffffffffff16815260200190815260200160002060008201518160000160006101000a81548173ffffffffffffffffffffffffffffffffffffffff021916908373ffffffffffffffffffffffffffffffffffffffff16021790555060208201518160000160146101000a81548160ff02191690831515021790555060408201518160000160156101000a81548160ff02191690831515021790555060608201518160000160166101000a81548160ff021916908315150217905550905050808060010191505062000458565b505050505050506200073f565b828054600181600116156101000203166002900490600052602060002090601f016020900481019282601f10620006d357805160ff191683800117855562000704565b8280016001018555821562000704579182015b8281111562000703578251825591602001919060010190620006e6565b5b50905062000713919062000717565b5090565b6200073c91905b80821115620007385760008160009055506001016200071e565b5090565b90565b610c74806200074f6000396000f3fe6080604052600436106100a75760003560e01c806396d195bd1161006457806396d195bd1461028d578063ad4e0407146102f9578063ad727eb214610328578063af8979fd14610357578063d73fe0aa14610361578063de315677146103cd576100a7565b80630eeb4de5146101145780632e1a7d4d1461011e578063406e67091461014c5780635f8d96de1461017b5780637e79e8ba146101a65780638da5cb5b14610236575b7f88a5966d370b9919b20f3e2c13ff65706f196a4e32cc2c12bf57088f885258743334604051808373ffffffffffffffffffffffffffffffffffffffff1673ffffffffffffffffffffffffffffffffffffffff1681526020018281526020019250505060405180910390a1005b61011c610439565b005b61014a6004803603602081101561013457600080fd5b810190808035906020019092919050505061058b565b005b34801561015857600080fd5b50610161610684565b604051808215151515815260200191505060405180910390f35b34801561018757600080fd5b5061019061069b565b6040518082815260200191505060405180910390f35b3480156101b257600080fd5b506101bb6106a5565b6040518080602001828103825283818151815260200191508051906020019080838360005b838110156101fb5780820151818401526020810190506101e0565b50505050905090810190601f1680156102285780820380516001836020036101000a031916815260200191505b509250505060405180910390f35b34801561024257600080fd5b5061024b610747565b604051808273ffffffffffffffffffffffffffffffffffffffff1673ffffffffffffffffffffffffffffffffffffffff16815260200191505060405180910390f35b34801561029957600080fd5b506102a261076c565b6040518080602001828103825283818151815260200191508051906020019060200280838360005b838110156102e55780820151818401526020810190506102ca565b505050509050019250505060405180910390f35b34801561030557600080fd5b5061030e6107fa565b604051808215151515815260200191505060405180910390f35b34801561033457600080fd5b5061033d610811565b604051808215151515815260200191505060405180910390f35b61035f610827565b005b34801561036d57600080fd5b506103766109f9565b6040518080602001828103825283818151815260200191508051906020019060200280838360005b838110156103b957808201518184015260208101905061039e565b505050509050019250505060405180910390f35b3480156103d957600080fd5b506103e2610a51565b6040518080602001828103825283818151815260200191508051906020019060200280838360005b8381101561042557808201518184015260208101905061040a565b505050509050019250505060405180910390f35b6001600760003373ffffffffffffffffffffffffffffffffffffffff1673ffffffffffffffffffffffffffffffffffffffff16815260200190815260200160002060000160146101000a81548160ff021916908315150217905550600080905060008090505b60088054905081101561055e5760076000600883815481106104bd57fe5b9060005260206000200160009054906101000a900473ffffffffffffffffffffffffffffffffffffffff1673ffffffffffffffffffffffffffffffffffffffff1673ffffffffffffffffffffffffffffffffffffffff16815260200190815260200160002060000160149054906101000a900460ff1615610545578180600101925050610551565b600061055057600080fd5b5b808060010191505061049f565b50600880549050811415610588576001600260006101000a81548160ff0219169083151502179055505b50565b6000809054906101000a900473ffffffffffffffffffffffffffffffffffffffff1673ffffffffffffffffffffffffffffffffffffffff163373ffffffffffffffffffffffffffffffffffffffff16146105e457600080fd5b6000670de0b6b3a7640000820290503073ffffffffffffffffffffffffffffffffffffffff163181111561061757610680565b6000809054906101000a900473ffffffffffffffffffffffffffffffffffffffff1673ffffffffffffffffffffffffffffffffffffffff166108fc829081150290604051600060405180830381858888f1935050505015801561067e573d6000803e3d6000fd5b505b5050565b6000600260009054906101000a900460ff16905090565b6000600354905090565b606060018054600181600116156101000203166002900480601f01602080910402602001604051908101604052809291908181526020018280546001816001161561010002031660029004801561073d5780601f106107125761010080835404028352916020019161073d565b820191906000526020600020905b81548152906001019060200180831161072057829003601f168201915b5050505050905090565b6000809054906101000a900473ffffffffffffffffffffffffffffffffffffffff1681565b606060088054806020026020016040519081016040528092919081815260200182805480156107f057602002820191906000526020600020905b8160009054906101000a900473ffffffffffffffffffffffffffffffffffffffff1673ffffffffffffffffffffffffffffffffffffffff16815260200190600101908083116107a6575b5050505050905090565b6000600260019054906101000a900460ff16905090565b60006002809054906101000a900460ff16905090565b600260009054906101000a900460ff1661084057600080fd5b60011515600760003373ffffffffffffffffffffffffffffffffffffffff1673ffffffffffffffffffffffffffffffffffffffff16815260200190815260200160002060000160169054906101000a900460ff161515146108a057600080fd5b6001600760003373ffffffffffffffffffffffffffffffffffffffff1673ffffffffffffffffffffffffffffffffffffffff16815260200190815260200160002060000160156101000a81548160ff021916908315150217905550600080905060008090505b6008805490508110156109c557600760006008838154811061092457fe5b9060005260206000200160009054906101000a900473ffffffffffffffffffffffffffffffffffffffff1673ffffffffffffffffffffffffffffffffffffffff1673ffffffffffffffffffffffffffffffffffffffff16815260200190815260200160002060000160159054906101000a900460ff16156109ac5781806001019250506109b8565b60006109b757600080fd5b5b8080600101915050610906565b506008805490508114156109f65760016002806101000a81548160ff0219169083151502179055506109f5610adf565b5b50565b60606006805480602002602001604051908101604052809291908181526020018280548015610a4757602002820191906000526020600020905b815481526020019060010190808311610a33575b5050505050905090565b60606005805480602002602001604051908101604052809291908181526020018280548015610ad557602002820191906000526020600020905b8160009054906101000a900473ffffffffffffffffffffffffffffffffffffffff1673ffffffffffffffffffffffffffffffffffffffff1681526020019060010190808311610a8b575b5050505050905090565b60003073ffffffffffffffffffffffffffffffffffffffff1631905060008090505b600580549050811015610c4457600060058281548110610b1d57fe5b9060005260206000200160009054906101000a900473ffffffffffffffffffffffffffffffffffffffff16905060008090506000600460008473ffffffffffffffffffffffffffffffffffffffff1673ffffffffffffffffffffffffffffffffffffffff168152602001908152602001600020600101549050606481860281610ba257fe5b0491508273ffffffffffffffffffffffffffffffffffffffff166108fc839081150290604051600060405180830381858888f19350505050158015610beb573d6000803e3d6000fd5b506000600460008573ffffffffffffffffffffffffffffffffffffffff1673ffffffffffffffffffffffffffffffffffffffff168152602001908152602001600020600101819055505050508080600101915050610b01565b505056fea165627a7a72305820b5dd7da6e5e2a1280762dce68ad09c25cb0e8ec3f2d3d05fd64c093a2750c1400029a165627a7a723058209b8d30e0143bc360fa798f3a04430ebbeafdaf24e25f8461e81cb7c5275371e40029",
  "source": "\r\npragma solidity ^0.5.8;\r\n\r\nimport \"./LastWill.sol\";\r\n\r\ncontract LastWillFactory {\r\n\r\n    // Store all the wills that have been created.\r\n    mapping(address => address) wills;\r\n\r\n    // Mapping from Beneficiaries to wills that are stored\r\n    mapping(address => address) verWills;\r\n\r\n    // Returns true if account is in the mapping.\r\n    function hasLastWill() public view returns(bool) {\r\n        if (address(wills[msg.sender]) != address(0)) {\r\n            return true;\r\n        }\r\n        return false;\r\n    }\r\n\r\n    // Returns the will to a specific user address.\r\n    function getWill() public view returns(address) {\r\n        return wills[msg.sender];\r\n    }\r\n    // Returns the will to a specific Beneficiary\r\n    function getVerWill() public view returns(address) {\r\n        return verWills[msg.sender];\r\n    }\r\n    // DOes the Validator has a will to validate???\r\n    function hasVerWill() public view returns(bool) {\r\n        if (address(verWills[msg.sender]) != address(0)) {\r\n            return true;\r\n        }\r\n        return false;\r\n    }\r\n\r\n    // Returns information about the will.\r\n    function getWillInfo(address contractAddr) public view returns(\r\n        string memory,\r\n        bool,\r\n        address[] memory,\r\n        uint256[] memory,\r\n        address[] memory) {\r\n        LastWill will = LastWill(address(uint160(contractAddr)));\r\n        string memory _email = will.getEmail();\r\n        bool _verified = will.getVerified();\r\n        address[] memory _benAccs = will.getBenAccs();\r\n        uint256[] memory _ratios = will.getShares();\r\n        address[] memory _witnAccs = will.getWitnesses();\r\n        return(_email, _verified, _benAccs, _ratios, _witnAccs);\r\n    }\r\n\r\n    function newLastWill(\r\n        string memory _email,\r\n        uint256 _deadline,\r\n        address[] memory _benAccs,\r\n        uint256[] memory _ratio,\r\n        address[] memory _verifier\r\n    ) payable public returns(address will) {\r\n        // Create new will.\r\n        will = address(new LastWill(msg.sender, _email, _deadline, _benAccs, _ratio, _verifier));\r\n\r\n        for(uint i = 0; i < _verifier.length; i++) {\r\n            verWills[_verifier[i]] = will;\r\n        }\r\n\r\n        // Add will to sender will.\r\n        wills[msg.sender] = address(will);\r\n\r\n        // Send ether from this transaction to the created will.\r\n        address(uint160(will)).transfer(msg.value);\r\n\r\n        return will;\r\n    }\r\n\r\n    // Prevents accidental sending of ether to the factory\r\n    function() external {\r\n        revert();\r\n    }\r\n}\r\n",
  "sourcePath": "C:/Users/Philip/WebstormProjects/CryptoWill/contracts/LastWillFactory.sol",
  "compiler": {
    "name": "solc",
    "version": "0.5.8+commit.23d335f2.Emscripten.clang"
  },
  "schemaVersion": "3.0.17",
  "updatedAt": "2019-12-19T14:03:03.265Z",
  "networkType": "ethereum",
  "devdoc": {
    "methods": {}
  },
  "userdoc": {
    "methods": {}
  }
}